{
  "address": "0x8dB709a1e5ffFC4463E6694AFA0eA257FB5C9953",
  "abi": [
    {
      "inputs": [
        {
          "internalType": "address payable",
          "name": "diceGameAddress",
          "type": "address"
        }
      ],
      "stateMutability": "nonpayable",
      "type": "constructor"
    },
    {
      "anonymous": false,
      "inputs": [
        {
          "indexed": true,
          "internalType": "address",
          "name": "previousOwner",
          "type": "address"
        },
        {
          "indexed": true,
          "internalType": "address",
          "name": "newOwner",
          "type": "address"
        }
      ],
      "name": "OwnershipTransferred",
      "type": "event"
    },
    {
      "inputs": [],
      "name": "diceGame",
      "outputs": [
        {
          "internalType": "contract DiceGame",
          "name": "",
          "type": "address"
        }
      ],
      "stateMutability": "view",
      "type": "function"
    },
    {
      "inputs": [],
      "name": "owner",
      "outputs": [
        {
          "internalType": "address",
          "name": "",
          "type": "address"
        }
      ],
      "stateMutability": "view",
      "type": "function"
    },
    {
      "inputs": [],
      "name": "renounceOwnership",
      "outputs": [],
      "stateMutability": "nonpayable",
      "type": "function"
    },
    {
      "inputs": [],
      "name": "riggedRoll",
      "outputs": [],
      "stateMutability": "nonpayable",
      "type": "function"
    },
    {
      "inputs": [
        {
          "internalType": "address",
          "name": "newOwner",
          "type": "address"
        }
      ],
      "name": "transferOwnership",
      "outputs": [],
      "stateMutability": "nonpayable",
      "type": "function"
    },
    {
      "inputs": [
        {
          "internalType": "address payable",
          "name": "to",
          "type": "address"
        },
        {
          "internalType": "uint256",
          "name": "amount",
          "type": "uint256"
        }
      ],
      "name": "withdraw",
      "outputs": [],
      "stateMutability": "nonpayable",
      "type": "function"
    },
    {
      "stateMutability": "payable",
      "type": "receive"
    }
  ],
  "transactionHash": "0x9a7ac24a16c917dd26fb7ec04d37e1af0ca279e38fcadb62d15452614c78aebd",
  "args": [
    "0xAABA3c5b05f4737Ae1C01A0646D1d6AAEA272038"
  ],
  "numDeployments": 3,
  "solcInputHash": "c6ce5dc548bc5f703411710a95f63765",
  "bytecode": "0x608060405234801561001057600080fd5b50604051610a30380380610a3083398101604081905261002f916100ad565b6100383361005d565b600180546001600160a01b0319166001600160a01b03929092169190911790556100dd565b600080546001600160a01b038381166001600160a01b0319831681178455604051919092169283917f8be0079c531659141344cd1fd0a4f28419497f9722a3daafe3b4186f6b6457e09190a35050565b6000602082840312156100bf57600080fd5b81516001600160a01b03811681146100d657600080fd5b9392505050565b610944806100ec6000396000f3fe6080604052600436106100595760003560e01c80636b5e97f8146100b2578063715018a6146100c75780638da5cb5b146100dc5780638e288fd114610112578063f2fde38b14610132578063f3fef3a31461015257600080fd5b366100ad576100ab6040518060400160405280600f81526020016e2932b1b2b4bb32b21022ba3432b91d60891b815250346040518060400160405280600381526020016257656960e81b815250610172565b005b600080fd5b3480156100be57600080fd5b506100ab6101be565b3480156100d357600080fd5b506100ab610425565b3480156100e857600080fd5b506000546001600160a01b03165b6040516001600160a01b03909116815260200160405180910390f35b34801561011e57600080fd5b506001546100f6906001600160a01b031681565b34801561013e57600080fd5b506100ab61014d366004610746565b610439565b34801561015e57600080fd5b506100ab61016d36600461076a565b6104b2565b6101b983838360405160240161018a939291906107dc565b60408051601f198184030181529190526020810180516001600160e01b0316635970e08960e01b179052610586565b505050565b66071afd498d000047101561021a5760405162461bcd60e51b815260206004820152601d60248201527f496e73756666696369656e7420636f6e74726163742062616c616e636500000060448201526064015b60405180910390fd5b6000610227600143610811565b6001546040805163057ff68760e51b815290519240935060009284926001600160a01b031691829163affed0e0916004808201926020929091908290030181865afa15801561027a573d6000803e3d6000fd5b505050506040513d601f19601f8201168201806040525081019061029e9190610838565b6040516020016102d39392919092835260609190911b6bffffffffffffffffffffffff19166020830152603482015260540190565b60408051601f198184030181529190528051602090910120905060006102fa601083610851565b905061033460405180604001604052806016815260200175283932b234b1ba32b2103937b636103932b9bab63a1d60511b8152508261058f565b60058111156103945760405162461bcd60e51b815260206004820152602660248201527f50726564696374656420726f6c6c206973206e6f7420612077696e6e696e6720604482015265373ab6b132b960d11b6064820152608401610211565b600160009054906101000a90046001600160a01b03166001600160a01b0316637d789dee66071afd498d00006040518263ffffffff1660e01b81526004016000604051808303818588803b1580156103eb57600080fd5b505af11580156103ff573d6000803e3d6000fd5b50505050506101b96040518060600160405280602181526020016108ee602191396105d4565b61042d610617565b6104376000610671565b565b610441610617565b6001600160a01b0381166104a65760405162461bcd60e51b815260206004820152602660248201527f4f776e61626c653a206e6577206f776e657220697320746865207a65726f206160448201526564647265737360d01b6064820152608401610211565b6104af81610671565b50565b6104ba610617565b478111156105015760405162461bcd60e51b8152602060048201526014602482015273496e73756666696369656e742062616c616e636560601b6044820152606401610211565b6040516001600160a01b0383169082156108fc029083906000818181858888f19350505050158015610537573d6000803e3d6000fd5b5061058260405180604001604052806008815260200167576974686472657760c01b815250826040518060400160405280600681526020016557656920746f60d01b815250856106c1565b5050565b6104af81610710565b61058282826040516024016105a5929190610873565b60408051601f198184030181529190526020810180516001600160e01b0316632d839cb360e21b179052610586565b6104af816040516024016105e89190610895565b60408051601f198184030181529190526020810180516001600160e01b031663104c13eb60e21b179052610586565b6000546001600160a01b031633146104375760405162461bcd60e51b815260206004820181905260248201527f4f776e61626c653a2063616c6c6572206973206e6f7420746865206f776e65726044820152606401610211565b600080546001600160a01b038381166001600160a01b0319831681178455604051919092169283917f8be0079c531659141344cd1fd0a4f28419497f9722a3daafe3b4186f6b6457e09190a35050565b61070a848484846040516024016106db94939291906108a8565b60408051601f198184030181529190526020810180516001600160e01b0316631f118ca960e21b179052610586565b50505050565b60006a636f6e736f6c652e6c6f679050600080835160208501845afa505050565b6001600160a01b03811681146104af57600080fd5b60006020828403121561075857600080fd5b813561076381610731565b9392505050565b6000806040838503121561077d57600080fd5b823561078881610731565b946020939093013593505050565b6000815180845260005b818110156107bc576020818501810151868301820152016107a0565b506000602082860101526020601f19601f83011685010191505092915050565b6060815260006107ef6060830186610796565b84602084015282810360408401526108078185610796565b9695505050505050565b8181038181111561083257634e487b7160e01b600052601160045260246000fd5b92915050565b60006020828403121561084a57600080fd5b5051919050565b60008261086e57634e487b7160e01b600052601260045260246000fd5b500690565b6040815260006108866040830185610796565b90508260208301529392505050565b6020815260006107636020830184610796565b6080815260006108bb6080830187610796565b85602084015282810360408401526108d38186610796565b91505060018060a01b03831660608301529594505050505056fe52696767656420726f6c6c206578656375746564207375636365737366756c6c79a2646970667358221220f4b700a07c1fe02ccef99b8b7ba0226094b6f667b0b84bb1f114b137d4b2866f64736f6c63430008110033",
  "devdoc": {
    "kind": "dev",
    "methods": {
      "owner()": {
        "details": "Returns the address of the current owner."
      },
      "renounceOwnership()": {
        "details": "Leaves the contract without owner. It will not be possible to call `onlyOwner` functions anymore. Can only be called by the current owner. NOTE: Renouncing ownership will leave the contract without an owner, thereby removing any functionality that is only available to the owner."
      },
      "transferOwnership(address)": {
        "details": "Transfers ownership of the contract to a new account (`newOwner`). Can only be called by the current owner."
      }
    },
    "version": 1
  },
  "userdoc": {
    "kind": "user",
    "methods": {},
    "version": 1
  },
  "storageLayout": {
    "storage": [
      {
        "astId": 7,
        "contract": "contracts/RiggedRoll.sol:RiggedRoll",
        "label": "_owner",
        "offset": 0,
        "slot": "0",
        "type": "t_address"
      },
      {
        "astId": 308,
        "contract": "contracts/RiggedRoll.sol:RiggedRoll",
        "label": "diceGame",
        "offset": 0,
        "slot": "1",
        "type": "t_contract(DiceGame)298"
      }
    ],
    "types": {
      "t_address": {
        "encoding": "inplace",
        "label": "address",
        "numberOfBytes": "20"
      },
      "t_contract(DiceGame)298": {
        "encoding": "inplace",
        "label": "contract DiceGame",
        "numberOfBytes": "20"
      }
    }
  }
}