{
  "address": "0x7761C1e8D24AB5FCCaBCc1E2c92596b207cb56bB",
  "abi": [
    {
      "inputs": [
        {
          "internalType": "address payable",
          "name": "diceGameAddress",
          "type": "address"
        }
      ],
      "stateMutability": "nonpayable",
      "type": "constructor"
    },
    {
      "anonymous": false,
      "inputs": [
        {
          "indexed": true,
          "internalType": "address",
          "name": "previousOwner",
          "type": "address"
        },
        {
          "indexed": true,
          "internalType": "address",
          "name": "newOwner",
          "type": "address"
        }
      ],
      "name": "OwnershipTransferred",
      "type": "event"
    },
    {
      "inputs": [],
      "name": "diceGame",
      "outputs": [
        {
          "internalType": "contract DiceGame",
          "name": "",
          "type": "address"
        }
      ],
      "stateMutability": "view",
      "type": "function"
    },
    {
      "inputs": [],
      "name": "owner",
      "outputs": [
        {
          "internalType": "address",
          "name": "",
          "type": "address"
        }
      ],
      "stateMutability": "view",
      "type": "function"
    },
    {
      "inputs": [],
      "name": "renounceOwnership",
      "outputs": [],
      "stateMutability": "nonpayable",
      "type": "function"
    },
    {
      "inputs": [],
      "name": "riggedRoll",
      "outputs": [],
      "stateMutability": "nonpayable",
      "type": "function"
    },
    {
      "inputs": [
        {
          "internalType": "address",
          "name": "newOwner",
          "type": "address"
        }
      ],
      "name": "transferOwnership",
      "outputs": [],
      "stateMutability": "nonpayable",
      "type": "function"
    },
    {
      "inputs": [
        {
          "internalType": "address payable",
          "name": "to",
          "type": "address"
        },
        {
          "internalType": "uint256",
          "name": "amount",
          "type": "uint256"
        }
      ],
      "name": "withdraw",
      "outputs": [],
      "stateMutability": "nonpayable",
      "type": "function"
    },
    {
      "stateMutability": "payable",
      "type": "receive"
    }
  ],
  "transactionHash": "0x5808b7384f67d44884a625c1afa2caac7cc4f06656070c1b34ee927c43c44b60",
  "args": [
    "0xAABA3c5b05f4737Ae1C01A0646D1d6AAEA272038"
  ],
  "numDeployments": 1,
  "solcInputHash": "61e7b9cc928054135aaf21a73c84c112",
  "bytecode": "0x608060405234801561001057600080fd5b506040516109e43803806109e483398101604081905261002f916100b2565b61003833610062565b600180546001600160a01b0319166001600160a01b039290921691909117905560006002556100e2565b600080546001600160a01b038381166001600160a01b0319831681178455604051919092169283917f8be0079c531659141344cd1fd0a4f28419497f9722a3daafe3b4186f6b6457e09190a35050565b6000602082840312156100c457600080fd5b81516001600160a01b03811681146100db57600080fd5b9392505050565b6108f3806100f16000396000f3fe6080604052600436106100595760003560e01c80636b5e97f8146100b2578063715018a6146100c75780638da5cb5b146100dc5780638e288fd114610112578063f2fde38b14610132578063f3fef3a31461015257600080fd5b366100ad576100ab6040518060400160405280600f81526020016e2932b1b2b4bb32b21022ba3432b91d60891b815250346040518060400160405280600381526020016257656960e81b815250610172565b005b600080fd5b3480156100be57600080fd5b506100ab6101be565b3480156100d357600080fd5b506100ab6103cc565b3480156100e857600080fd5b506000546001600160a01b03165b6040516001600160a01b03909116815260200160405180910390f35b34801561011e57600080fd5b506001546100f6906001600160a01b031681565b34801561013e57600080fd5b506100ab61014d3660046106ed565b6103e0565b34801561015e57600080fd5b506100ab61016d366004610711565b610459565b6101b983838360405160240161018a93929190610783565b60408051601f198184030181529190526020810180516001600160e01b0316635970e08960e01b17905261052d565b505050565b66071afd498d000047101561021a5760405162461bcd60e51b815260206004820152601d60248201527f496e73756666696369656e7420636f6e74726163742062616c616e636500000060448201526064015b60405180910390fd5b60006102276001436107ce565b6001546002546040805193406020850181905260609390931b6bffffffffffffffffffffffff1916908401526054830152915060009060740160408051601f198184030181529190528051602090910120905060006102876010836107e7565b90506102c160405180604001604052806016815260200175283932b234b1ba32b2103937b636103932b9bab63a1d60511b81525082610536565b60058111156103215760405162461bcd60e51b815260206004820152602660248201527f50726564696374656420726f6c6c206973206e6f7420612077696e6e696e6720604482015265373ab6b132b960d11b6064820152608401610211565b600160009054906101000a90046001600160a01b03166001600160a01b0316637d789dee66071afd498d00006040518263ffffffff1660e01b81526004016000604051808303818588803b15801561037857600080fd5b505af115801561038c573d6000803e3d6000fd5b50505050506103b260405180606001604052806021815260200161089d6021913961057b565b600280549060006103c283610809565b9190505550505050565b6103d46105be565b6103de6000610618565b565b6103e86105be565b6001600160a01b03811661044d5760405162461bcd60e51b815260206004820152602660248201527f4f776e61626c653a206e6577206f776e657220697320746865207a65726f206160448201526564647265737360d01b6064820152608401610211565b61045681610618565b50565b6104616105be565b478111156104a85760405162461bcd60e51b8152602060048201526014602482015273496e73756666696369656e742062616c616e636560601b6044820152606401610211565b6040516001600160a01b0383169082156108fc029083906000818181858888f193505050501580156104de573d6000803e3d6000fd5b5061052960405180604001604052806008815260200167576974686472657760c01b815250826040518060400160405280600681526020016557656920746f60d01b81525085610668565b5050565b610456816106b7565b610529828260405160240161054c929190610822565b60408051601f198184030181529190526020810180516001600160e01b0316632d839cb360e21b17905261052d565b6104568160405160240161058f9190610844565b60408051601f198184030181529190526020810180516001600160e01b031663104c13eb60e21b17905261052d565b6000546001600160a01b031633146103de5760405162461bcd60e51b815260206004820181905260248201527f4f776e61626c653a2063616c6c6572206973206e6f7420746865206f776e65726044820152606401610211565b600080546001600160a01b038381166001600160a01b0319831681178455604051919092169283917f8be0079c531659141344cd1fd0a4f28419497f9722a3daafe3b4186f6b6457e09190a35050565b6106b1848484846040516024016106829493929190610857565b60408051601f198184030181529190526020810180516001600160e01b0316631f118ca960e21b17905261052d565b50505050565b60006a636f6e736f6c652e6c6f679050600080835160208501845afa505050565b6001600160a01b038116811461045657600080fd5b6000602082840312156106ff57600080fd5b813561070a816106d8565b9392505050565b6000806040838503121561072457600080fd5b823561072f816106d8565b946020939093013593505050565b6000815180845260005b8181101561076357602081850181015186830182015201610747565b506000602082860101526020601f19601f83011685010191505092915050565b606081526000610796606083018661073d565b84602084015282810360408401526107ae818561073d565b9695505050505050565b634e487b7160e01b600052601160045260246000fd5b818103818111156107e1576107e16107b8565b92915050565b60008261080457634e487b7160e01b600052601260045260246000fd5b500690565b60006001820161081b5761081b6107b8565b5060010190565b604081526000610835604083018561073d565b90508260208301529392505050565b60208152600061070a602083018461073d565b60808152600061086a608083018761073d565b8560208401528281036040840152610882818661073d565b91505060018060a01b03831660608301529594505050505056fe52696767656420726f6c6c206578656375746564207375636365737366756c6c79a26469706673582212202775bc0d628071ae860cadbc3cd96d7ec7c576e2edb89cf81b1c0a27efc0d8d064736f6c63430008110033",
  "devdoc": {
    "kind": "dev",
    "methods": {
      "owner()": {
        "details": "Returns the address of the current owner."
      },
      "renounceOwnership()": {
        "details": "Leaves the contract without owner. It will not be possible to call `onlyOwner` functions anymore. Can only be called by the current owner. NOTE: Renouncing ownership will leave the contract without an owner, thereby removing any functionality that is only available to the owner."
      },
      "transferOwnership(address)": {
        "details": "Transfers ownership of the contract to a new account (`newOwner`). Can only be called by the current owner."
      }
    },
    "version": 1
  },
  "userdoc": {
    "kind": "user",
    "methods": {},
    "version": 1
  },
  "storageLayout": {
    "storage": [
      {
        "astId": 7,
        "contract": "contracts/RiggedRoll.sol:RiggedRoll",
        "label": "_owner",
        "offset": 0,
        "slot": "0",
        "type": "t_address"
      },
      {
        "astId": 308,
        "contract": "contracts/RiggedRoll.sol:RiggedRoll",
        "label": "diceGame",
        "offset": 0,
        "slot": "1",
        "type": "t_contract(DiceGame)298"
      },
      {
        "astId": 310,
        "contract": "contracts/RiggedRoll.sol:RiggedRoll",
        "label": "trackedNonce",
        "offset": 0,
        "slot": "2",
        "type": "t_uint256"
      }
    ],
    "types": {
      "t_address": {
        "encoding": "inplace",
        "label": "address",
        "numberOfBytes": "20"
      },
      "t_contract(DiceGame)298": {
        "encoding": "inplace",
        "label": "contract DiceGame",
        "numberOfBytes": "20"
      },
      "t_uint256": {
        "encoding": "inplace",
        "label": "uint256",
        "numberOfBytes": "32"
      }
    }
  }
}