{
  "address": "0x1bEB8EF9a9974574b940892B4597C4cE60881dc9",
  "abi": [
    {
      "anonymous": false,
      "inputs": [
        {
          "indexed": false,
          "internalType": "address",
          "name": "",
          "type": "address"
        }
      ],
      "name": "Challenged",
      "type": "event"
    },
    {
      "anonymous": false,
      "inputs": [
        {
          "indexed": false,
          "internalType": "address",
          "name": "",
          "type": "address"
        }
      ],
      "name": "Closed",
      "type": "event"
    },
    {
      "anonymous": false,
      "inputs": [
        {
          "indexed": false,
          "internalType": "address",
          "name": "",
          "type": "address"
        },
        {
          "indexed": false,
          "internalType": "uint256",
          "name": "",
          "type": "uint256"
        }
      ],
      "name": "Opened",
      "type": "event"
    },
    {
      "anonymous": false,
      "inputs": [
        {
          "indexed": true,
          "internalType": "address",
          "name": "previousOwner",
          "type": "address"
        },
        {
          "indexed": true,
          "internalType": "address",
          "name": "newOwner",
          "type": "address"
        }
      ],
      "name": "OwnershipTransferred",
      "type": "event"
    },
    {
      "anonymous": false,
      "inputs": [
        {
          "indexed": false,
          "internalType": "address",
          "name": "",
          "type": "address"
        },
        {
          "indexed": false,
          "internalType": "uint256",
          "name": "",
          "type": "uint256"
        }
      ],
      "name": "Withdrawn",
      "type": "event"
    },
    {
      "inputs": [],
      "name": "challengeChannel",
      "outputs": [],
      "stateMutability": "nonpayable",
      "type": "function"
    },
    {
      "inputs": [],
      "name": "defundChannel",
      "outputs": [],
      "stateMutability": "nonpayable",
      "type": "function"
    },
    {
      "inputs": [],
      "name": "fundChannel",
      "outputs": [],
      "stateMutability": "payable",
      "type": "function"
    },
    {
      "inputs": [],
      "name": "owner",
      "outputs": [
        {
          "internalType": "address",
          "name": "",
          "type": "address"
        }
      ],
      "stateMutability": "view",
      "type": "function"
    },
    {
      "inputs": [],
      "name": "renounceOwnership",
      "outputs": [],
      "stateMutability": "nonpayable",
      "type": "function"
    },
    {
      "inputs": [
        {
          "internalType": "address",
          "name": "channel",
          "type": "address"
        }
      ],
      "name": "timeLeft",
      "outputs": [
        {
          "internalType": "uint256",
          "name": "",
          "type": "uint256"
        }
      ],
      "stateMutability": "view",
      "type": "function"
    },
    {
      "inputs": [
        {
          "internalType": "address",
          "name": "newOwner",
          "type": "address"
        }
      ],
      "name": "transferOwnership",
      "outputs": [],
      "stateMutability": "nonpayable",
      "type": "function"
    },
    {
      "inputs": [
        {
          "components": [
            {
              "internalType": "uint256",
              "name": "updatedBalance",
              "type": "uint256"
            },
            {
              "components": [
                {
                  "internalType": "bytes32",
                  "name": "r",
                  "type": "bytes32"
                },
                {
                  "internalType": "bytes32",
                  "name": "s",
                  "type": "bytes32"
                },
                {
                  "internalType": "uint8",
                  "name": "v",
                  "type": "uint8"
                }
              ],
              "internalType": "struct Streamer.Signature",
              "name": "sig",
              "type": "tuple"
            }
          ],
          "internalType": "struct Streamer.Voucher",
          "name": "voucher",
          "type": "tuple"
        }
      ],
      "name": "withdrawEarnings",
      "outputs": [],
      "stateMutability": "nonpayable",
      "type": "function"
    }
  ],
  "transactionHash": "0xf96472813afd63c84592940b35cd87634ee2be41966558c33d7239e7c9c34e06",
  "args": [],
  "numDeployments": 1,
  "solcInputHash": "d5697bd998801bbdd431c52b948b675e",
  "bytecode": "0x608060405234801561001057600080fd5b5061001a3361001f565b61006f565b600080546001600160a01b038381166001600160a01b0319831681178455604051919092169283917f8be0079c531659141344cd1fd0a4f28419497f9722a3daafe3b4186f6b6457e09190a35050565b6109588061007e6000396000f3fe60806040526004361061007b5760003560e01c806388a025661161004e57806388a02566146100e75780638da5cb5b14610107578063bc8641b11461012f578063f2fde38b1461014457600080fd5b8063157f83ad146100805780631e400d601461008a578063405c649c1461009f578063715018a6146100d2575b600080fd5b610088610164565b005b34801561009657600080fd5b5061008861020e565b3480156100ab57600080fd5b506100bf6100ba366004610877565b61039c565b6040519081526020015b60405180910390f35b3480156100de57600080fd5b5061008861040f565b3480156100f357600080fd5b506100886101023660046108a5565b610423565b34801561011357600080fd5b506000546040516001600160a01b0390911681526020016100c9565b34801561013b57600080fd5b506100886106a9565b34801561015057600080fd5b5061008861015f366004610877565b610754565b33600090815260016020526040902054156101bf5760405162461bcd60e51b81526020600482015260166024820152754368616e6e656c20616c72656164792065786973747360501b60448201526064015b60405180910390fd5b3360008181526001602090815260409182902034908190558251938452908301527fc4b27f09c64550fd678a5b3c3a00f454814732e346e0f1c79d0add8f980346de91015b60405180910390a1565b3360009081526002602052604090205461026a5760405162461bcd60e51b815260206004820152601c60248201527f4e6f20636c6f73696e67206368616e6e656c20746f20646566756e640000000060448201526064016101b6565b336000908152600260205260409020544210156102c95760405162461bcd60e51b815260206004820152601c60248201527f4368616e6e656c2063616e6e6f7420626520636c6f736564207965740000000060448201526064016101b6565b336000908152600160205260409020548061031d5760405162461bcd60e51b81526020600482015260146024820152734e6f2066756e647320746f20776974686472617760601b60448201526064016101b6565b33600081815260016020908152604080832083905560029091528082208290555183156108fc0291849190818181858888f19350505050158015610365573d6000803e3d6000fd5b506040513381527f13607bf9d2dd20e1f3a7daf47ab12856f8aad65e6ae7e2c75ace3d0c424a40e89060200160405180910390a150565b6001600160a01b03811660009081526002602052604081205415806103d857506001600160a01b03821660009081526002602052604090205442115b156103e557506000919050565b6001600160a01b0382166000908152600260205260409020546104099042906108f5565b92915050565b6104176107cd565b6104216000610827565b565b60408051823560208083019190915282518083038201815282840190935282519201919091207f19457468657265756d205369676e6564204d6573736167653a0a3332000000006060830152607c820181905290600090609c0160408051601f1981840301815291815281516020808401919091209293508501359085013560006104b460808801606089016108bc565b6040805160008082526020820180845288905260ff84169282019290925260608101869052608081018590529192509060019060a0016020604051602081039080840390855afa15801561050c573d6000803e3d6000fd5b5050604051601f1901519150506001600160a01b0381166105635760405162461bcd60e51b8152602060048201526011602482015270496e76616c6964207369676e617475726560781b60448201526064016101b6565b6001600160a01b0381166000908152600160205260409020548835106105cb5760405162461bcd60e51b815260206004820152601c60248201527f496e73756666696369656e74206368616e6e656c2062616c616e63650000000060448201526064016101b6565b6001600160a01b0381166000908152600160205260408120546105f0908a35906108f5565b6001600160a01b03831660009081526001602052604081208b3590559091506106216000546001600160a01b031690565b6040519091506001600160a01b0382169083156108fc029084906000818181858888f1935050505015801561065a573d6000803e3d6000fd5b50604080516001600160a01b0385168152602081018490527f7084f5476618d8e60b11ef0d7d3f06914655adb8793e28ff7f018d4c76d505d5910160405180910390a150505050505050505050565b336000908152600160205260409020546107055760405162461bcd60e51b815260206004820152601c60248201527f4e6f206f70656e206368616e6e656c20746f206368616c6c656e67650000000060448201526064016101b6565b61071142610e106108dd565b3360008181526002602090815260409182902093909355519081527f98027b38153f995c4b802a5c7e6365bee3addb25af6b29818c0c304684d8052c9101610204565b61075c6107cd565b6001600160a01b0381166107c15760405162461bcd60e51b815260206004820152602660248201527f4f776e61626c653a206e6577206f776e657220697320746865207a65726f206160448201526564647265737360d01b60648201526084016101b6565b6107ca81610827565b50565b6000546001600160a01b031633146104215760405162461bcd60e51b815260206004820181905260248201527f4f776e61626c653a2063616c6c6572206973206e6f7420746865206f776e657260448201526064016101b6565b600080546001600160a01b038381166001600160a01b0319831681178455604051919092169283917f8be0079c531659141344cd1fd0a4f28419497f9722a3daafe3b4186f6b6457e09190a35050565b600060208284031215610888578081fd5b81356001600160a01b038116811461089e578182fd5b9392505050565b6000608082840312156108b6578081fd5b50919050565b6000602082840312156108cd578081fd5b813560ff8116811461089e578182fd5b600082198211156108f0576108f061090c565b500190565b6000828210156109075761090761090c565b500390565b634e487b7160e01b600052601160045260246000fdfea26469706673582212205c647a0a0e52c05d4d8c8c9f84eaf289129f8f6fe16030ec0150bae6fdc4fc3a64736f6c63430008040033",
  "devdoc": {
    "kind": "dev",
    "methods": {
      "owner()": {
        "details": "Returns the address of the current owner."
      },
      "renounceOwnership()": {
        "details": "Leaves the contract without owner. It will not be possible to call `onlyOwner` functions anymore. Can only be called by the current owner. NOTE: Renouncing ownership will leave the contract without an owner, thereby removing any functionality that is only available to the owner."
      },
      "transferOwnership(address)": {
        "details": "Transfers ownership of the contract to a new account (`newOwner`). Can only be called by the current owner."
      }
    },
    "version": 1
  },
  "userdoc": {
    "kind": "user",
    "methods": {},
    "version": 1
  },
  "storageLayout": {
    "storage": [
      {
        "astId": 7,
        "contract": "contracts/Streamer.sol:Streamer",
        "label": "_owner",
        "offset": 0,
        "slot": "0",
        "type": "t_address"
      },
      {
        "astId": 164,
        "contract": "contracts/Streamer.sol:Streamer",
        "label": "balances",
        "offset": 0,
        "slot": "1",
        "type": "t_mapping(t_address,t_uint256)"
      },
      {
        "astId": 168,
        "contract": "contracts/Streamer.sol:Streamer",
        "label": "canCloseAt",
        "offset": 0,
        "slot": "2",
        "type": "t_mapping(t_address,t_uint256)"
      }
    ],
    "types": {
      "t_address": {
        "encoding": "inplace",
        "label": "address",
        "numberOfBytes": "20"
      },
      "t_mapping(t_address,t_uint256)": {
        "encoding": "mapping",
        "key": "t_address",
        "label": "mapping(address => uint256)",
        "numberOfBytes": "32",
        "value": "t_uint256"
      },
      "t_uint256": {
        "encoding": "inplace",
        "label": "uint256",
        "numberOfBytes": "32"
      }
    }
  }
}