{
  "address": "0x8961371637e99eadfCed998C9F6fA7D4E119b58a",
  "abi": [
    {
      "inputs": [
        {
          "internalType": "address",
          "name": "exampleExternalContractAddress",
          "type": "address"
        }
      ],
      "stateMutability": "nonpayable",
      "type": "constructor"
    },
    {
      "anonymous": false,
      "inputs": [
        {
          "indexed": true,
          "internalType": "address",
          "name": "Staker",
          "type": "address"
        },
        {
          "indexed": false,
          "internalType": "uint256",
          "name": "amount",
          "type": "uint256"
        }
      ],
      "name": "Stake",
      "type": "event"
    },
    {
      "inputs": [
        {
          "internalType": "address",
          "name": "",
          "type": "address"
        }
      ],
      "name": "balances",
      "outputs": [
        {
          "internalType": "uint256",
          "name": "",
          "type": "uint256"
        }
      ],
      "stateMutability": "view",
      "type": "function"
    },
    {
      "inputs": [],
      "name": "deadline",
      "outputs": [
        {
          "internalType": "uint256",
          "name": "",
          "type": "uint256"
        }
      ],
      "stateMutability": "view",
      "type": "function"
    },
    {
      "inputs": [],
      "name": "exampleExternalContract",
      "outputs": [
        {
          "internalType": "contract ExampleExternalContract",
          "name": "",
          "type": "address"
        }
      ],
      "stateMutability": "view",
      "type": "function"
    },
    {
      "inputs": [],
      "name": "execute",
      "outputs": [],
      "stateMutability": "nonpayable",
      "type": "function"
    },
    {
      "inputs": [],
      "name": "executed",
      "outputs": [
        {
          "internalType": "bool",
          "name": "",
          "type": "bool"
        }
      ],
      "stateMutability": "view",
      "type": "function"
    },
    {
      "inputs": [],
      "name": "openForWithdraw",
      "outputs": [
        {
          "internalType": "bool",
          "name": "",
          "type": "bool"
        }
      ],
      "stateMutability": "view",
      "type": "function"
    },
    {
      "inputs": [],
      "name": "stake",
      "outputs": [],
      "stateMutability": "payable",
      "type": "function"
    },
    {
      "inputs": [],
      "name": "threshold",
      "outputs": [
        {
          "internalType": "uint256",
          "name": "",
          "type": "uint256"
        }
      ],
      "stateMutability": "view",
      "type": "function"
    },
    {
      "inputs": [],
      "name": "timeLeft",
      "outputs": [
        {
          "internalType": "uint256",
          "name": "",
          "type": "uint256"
        }
      ],
      "stateMutability": "view",
      "type": "function"
    },
    {
      "inputs": [],
      "name": "withdraw",
      "outputs": [],
      "stateMutability": "nonpayable",
      "type": "function"
    },
    {
      "stateMutability": "payable",
      "type": "receive"
    }
  ],
  "transactionHash": "0xbd65c496523817127c00905f6b1477d426d039d56e446ff385e6a0aff79593c3",
  "args": [
    "0x6369892B95453B105E40a632ebe517f4e89dAf67"
  ],
  "numDeployments": 1,
  "solcInputHash": "6f6f74c3d7fce39c0eae714d8b1cbe63",
  "bytecode": "0x608060405234801561001057600080fd5b5060405161068e38038061068e83398101604081905261002f91610060565b600080546001600160a01b0319166001600160a01b038316179055610057426203f48061008e565b600255506100b2565b600060208284031215610071578081fd5b81516001600160a01b0381168114610087578182fd5b9392505050565b600082198211156100ad57634e487b7160e01b81526011600452602481fd5b500190565b6105cd806100c16000396000f3fe6080604052600436106100955760003560e01c80633ccfd60b116100595780633ccfd60b1461014b57806342cde4e814610160578063614619541461017c5780639876a643146101915780639f75f227146101ab57600080fd5b80631300a6d1146100a957806327e235e3146100d157806329dcb0cf146100fe57806331a38c89146101145780633a4b66f11461014357600080fd5b366100a4576100a26101e3565b005b600080fd5b3480156100b557600080fd5b506100be610287565b6040519081526020015b60405180910390f35b3480156100dd57600080fd5b506100be6100ec366004610524565b60016020526000908152604090205481565b34801561010a57600080fd5b506100be60025481565b34801561012057600080fd5b5060035461013390610100900460ff1681565b60405190151581526020016100c8565b6100a26101e3565b34801561015757600080fd5b506100a26102ab565b34801561016c57600080fd5b506100be670de0b6b3a764000081565b34801561018857600080fd5b506100a26103f5565b34801561019d57600080fd5b506003546101339060ff1681565b3480156101b757600080fd5b506000546101cb906001600160a01b031681565b6040516001600160a01b0390911681526020016100c8565b600254421061022c5760405162461bcd60e51b815260206004820152601060248201526f111958591b1a5b99481c995858da195960821b60448201526064015b60405180910390fd5b336000908152600160205260408120805434929061024b908490610552565b909155505060405134815233907febedb8b3c678666e7f36970bc8f57abf6d8fa2e828c0da91ea5b75bf68ed101a9060200160405180910390a2565b600060025442106102985750600090565b426002546102a6919061056a565b905090565b60035460ff166102fd5760405162461bcd60e51b815260206004820152601760248201527f4e6f74206f70656e656420666f722077697468647261770000000000000000006044820152606401610223565b33600090815260016020526040902054806103535760405162461bcd60e51b81526020600482015260166024820152754e6f2062616c616e636520746f20776974686472617760501b6044820152606401610223565b336000818152600160205260408082208290555190919083908381818185875af1925050503d80600081146103a4576040519150601f19603f3d011682016040523d82523d6000602084013e6103a9565b606091505b50509050806103f15760405162461bcd60e51b81526020600482015260146024820152732330b4b632b2103a379039b2b73a1022ba3432b960611b6044820152606401610223565b5050565b60025442101561043e5760405162461bcd60e51b8152602060048201526014602482015273111958591b1a5b99481b9bdd081c995858da195960621b6044820152606401610223565b600354610100900460ff16156104895760405162461bcd60e51b815260206004820152601060248201526f105b1c9958591e48195e1958dd5d195960821b6044820152606401610223565b670de0b6b3a764000047106105145760008054906101000a90046001600160a01b03166001600160a01b031663522e1177476040518263ffffffff1660e01b81526004016000604051808303818588803b1580156104e657600080fd5b505af11580156104fa573d6000803e3d6000fd5b50506003805461ff00191661010017905550610522915050565b6003805460ff191660011790555b565b600060208284031215610535578081fd5b81356001600160a01b038116811461054b578182fd5b9392505050565b6000821982111561056557610565610581565b500190565b60008282101561057c5761057c610581565b500390565b634e487b7160e01b600052601160045260246000fdfea264697066735822122053386d1f03286d027504afecf11f49d88c7a4e043a68574693c6e61eb568153b64736f6c63430008040033",
  "devdoc": {
    "kind": "dev",
    "methods": {},
    "version": 1
  },
  "userdoc": {
    "kind": "user",
    "methods": {},
    "version": 1
  },
  "storageLayout": {
    "storage": [
      {
        "astId": 25,
        "contract": "contracts/Staker.sol:Staker",
        "label": "exampleExternalContract",
        "offset": 0,
        "slot": "0",
        "type": "t_contract(ExampleExternalContract)12"
      },
      {
        "astId": 48,
        "contract": "contracts/Staker.sol:Staker",
        "label": "balances",
        "offset": 0,
        "slot": "1",
        "type": "t_mapping(t_address,t_uint256)"
      },
      {
        "astId": 53,
        "contract": "contracts/Staker.sol:Staker",
        "label": "deadline",
        "offset": 0,
        "slot": "2",
        "type": "t_uint256"
      },
      {
        "astId": 55,
        "contract": "contracts/Staker.sol:Staker",
        "label": "openForWithdraw",
        "offset": 0,
        "slot": "3",
        "type": "t_bool"
      },
      {
        "astId": 57,
        "contract": "contracts/Staker.sol:Staker",
        "label": "executed",
        "offset": 1,
        "slot": "3",
        "type": "t_bool"
      }
    ],
    "types": {
      "t_address": {
        "encoding": "inplace",
        "label": "address",
        "numberOfBytes": "20"
      },
      "t_bool": {
        "encoding": "inplace",
        "label": "bool",
        "numberOfBytes": "1"
      },
      "t_contract(ExampleExternalContract)12": {
        "encoding": "inplace",
        "label": "contract ExampleExternalContract",
        "numberOfBytes": "20"
      },
      "t_mapping(t_address,t_uint256)": {
        "encoding": "mapping",
        "key": "t_address",
        "label": "mapping(address => uint256)",
        "numberOfBytes": "32",
        "value": "t_uint256"
      },
      "t_uint256": {
        "encoding": "inplace",
        "label": "uint256",
        "numberOfBytes": "32"
      }
    }
  }
}